{
  "_format": "hh-sol-artifact-1",
  "contractName": "RoyaltiesV2Impl",
  "sourceName": "contracts/royalties/contracts/impl/RoyaltiesV2Impl.sol",
  "abi": [
    {
      "anonymous": false,
      "inputs": [
        {
          "indexed": false,
          "internalType": "uint256",
          "name": "tokenId",
          "type": "uint256"
        },
        {
          "components": [
            {
              "internalType": "address payable",
              "name": "account",
              "type": "address"
            },
            {
              "internalType": "uint96",
              "name": "value",
              "type": "uint96"
            }
          ],
          "indexed": false,
          "internalType": "struct LibPart.Part[]",
          "name": "royalties",
          "type": "tuple[]"
        }
      ],
      "name": "RoyaltiesSet",
      "type": "event"
    },
    {
      "inputs": [
        {
          "internalType": "uint256",
          "name": "id",
          "type": "uint256"
        }
      ],
      "name": "getRaribleV2Royalties",
      "outputs": [
        {
          "components": [
            {
              "internalType": "address payable",
              "name": "account",
              "type": "address"
            },
            {
              "internalType": "uint96",
              "name": "value",
              "type": "uint96"
            }
          ],
          "internalType": "struct LibPart.Part[]",
          "name": "",
          "type": "tuple[]"
        }
      ],
      "stateMutability": "view",
      "type": "function"
    },
    {
      "inputs": [
        {
          "internalType": "uint256",
          "name": "",
          "type": "uint256"
        },
        {
          "internalType": "uint256",
          "name": "",
          "type": "uint256"
        }
      ],
      "name": "royalties",
      "outputs": [
        {
          "internalType": "address payable",
          "name": "account",
          "type": "address"
        },
        {
          "internalType": "uint96",
          "name": "value",
          "type": "uint96"
        }
      ],
      "stateMutability": "view",
      "type": "function"
    }
  ],
  "bytecode": "0x608060405234801561001057600080fd5b5061049f806100206000396000f3fe608060405234801561001057600080fd5b50600436106100365760003560e01c80638924af741461003b578063cad96cca1461006c575b600080fd5b6100556004803603810190610050919061024d565b61009c565b6040516100639291906102f5565b60405180910390f35b6100866004803603810190610081919061031e565b610111565b6040516100939190610447565b60405180910390f35b600060205281600052604060002081815481106100b857600080fd5b90600052602060002001600091509150508060000160009054906101000a900473ffffffffffffffffffffffffffffffffffffffff16908060000160149054906101000a90046bffffffffffffffffffffffff16905082565b6060600080838152602001908152602001600020805480602002602001604051908101604052809291908181526020016000905b82821015610207578382906000526020600020016040518060400160405290816000820160009054906101000a900473ffffffffffffffffffffffffffffffffffffffff1673ffffffffffffffffffffffffffffffffffffffff1673ffffffffffffffffffffffffffffffffffffffff1681526020016000820160149054906101000a90046bffffffffffffffffffffffff166bffffffffffffffffffffffff166bffffffffffffffffffffffff168152505081526020019060010190610145565b505050509050919050565b600080fd5b6000819050919050565b61022a81610217565b811461023557600080fd5b50565b60008135905061024781610221565b92915050565b6000806040838503121561026457610263610212565b5b600061027285828601610238565b925050602061028385828601610238565b9150509250929050565b600073ffffffffffffffffffffffffffffffffffffffff82169050919050565b60006102b88261028d565b9050919050565b6102c8816102ad565b82525050565b60006bffffffffffffffffffffffff82169050919050565b6102ef816102ce565b82525050565b600060408201905061030a60008301856102bf565b61031760208301846102e6565b9392505050565b60006020828403121561033457610333610212565b5b600061034284828501610238565b91505092915050565b600081519050919050565b600082825260208201905092915050565b6000819050602082019050919050565b610380816102ad565b82525050565b61038f816102ce565b82525050565b6040820160008201516103ab6000850182610377565b5060208201516103be6020850182610386565b50505050565b60006103d08383610395565b60408301905092915050565b6000602082019050919050565b60006103f48261034b565b6103fe8185610356565b935061040983610367565b8060005b8381101561043a57815161042188826103c4565b975061042c836103dc565b92505060018101905061040d565b5085935050505092915050565b6000602082019050818103600083015261046181846103e9565b90509291505056fea26469706673582212208edf8eced1617699895cb5412fb9b61f3b2328d571cd65c104f2bddef1cb920664736f6c63430008110033",
  "linkReferences": {},
  "deployedLinkReferences": {}
}