{
  "_format": "hh-sol-artifact-1",
  "contractName": "ERC721Factory",
  "sourceName": "contracts/ERC721Factory.sol",
  "abi": [
    {
      "inputs": [],
      "stateMutability": "nonpayable",
      "type": "constructor"
    },
    {
      "inputs": [
        {
          "internalType": "address",
          "name": "nftAddress",
          "type": "address"
        },
        {
          "internalType": "uint256",
          "name": "tokenId",
          "type": "uint256"
        }
      ],
      "name": "AlreadyListed",
      "type": "error"
    },
    {
      "inputs": [],
      "name": "NoProceeds",
      "type": "error"
    },
    {
      "inputs": [],
      "name": "NotApprovedForMarketplace",
      "type": "error"
    },
    {
      "inputs": [
        {
          "internalType": "address",
          "name": "nftAddress",
          "type": "address"
        },
        {
          "internalType": "uint256",
          "name": "tokenId",
          "type": "uint256"
        }
      ],
      "name": "NotListed",
      "type": "error"
    },
    {
      "inputs": [],
      "name": "NotOwner",
      "type": "error"
    },
    {
      "inputs": [],
      "name": "PriceMustBeAboveZero",
      "type": "error"
    },
    {
      "inputs": [
        {
          "internalType": "address",
          "name": "nftAddress",
          "type": "address"
        },
        {
          "internalType": "uint256",
          "name": "tokenId",
          "type": "uint256"
        },
        {
          "internalType": "uint256",
          "name": "price",
          "type": "uint256"
        }
      ],
      "name": "PriceNotMet",
      "type": "error"
    },
    {
      "anonymous": false,
      "inputs": [
        {
          "indexed": true,
          "internalType": "address",
          "name": "buyer",
          "type": "address"
        },
        {
          "indexed": true,
          "internalType": "address",
          "name": "nftAddress",
          "type": "address"
        },
        {
          "indexed": true,
          "internalType": "uint256",
          "name": "tokenId",
          "type": "uint256"
        },
        {
          "indexed": false,
          "internalType": "uint256",
          "name": "price",
          "type": "uint256"
        }
      ],
      "name": "ItemBought",
      "type": "event"
    },
    {
      "anonymous": false,
      "inputs": [
        {
          "indexed": true,
          "internalType": "address",
          "name": "seller",
          "type": "address"
        },
        {
          "indexed": true,
          "internalType": "address",
          "name": "nftAddress",
          "type": "address"
        },
        {
          "indexed": true,
          "internalType": "uint256",
          "name": "tokenId",
          "type": "uint256"
        }
      ],
      "name": "ItemCanceled",
      "type": "event"
    },
    {
      "anonymous": false,
      "inputs": [
        {
          "indexed": true,
          "internalType": "address",
          "name": "seller",
          "type": "address"
        },
        {
          "indexed": true,
          "internalType": "address",
          "name": "nftAddress",
          "type": "address"
        },
        {
          "indexed": true,
          "internalType": "uint256",
          "name": "tokenId",
          "type": "uint256"
        },
        {
          "indexed": false,
          "internalType": "uint256",
          "name": "price",
          "type": "uint256"
        }
      ],
      "name": "ItemListed",
      "type": "event"
    },
    {
      "inputs": [
        {
          "internalType": "address",
          "name": "nftAddress",
          "type": "address"
        },
        {
          "internalType": "uint256",
          "name": "tokenId",
          "type": "uint256"
        }
      ],
      "name": "buyItem",
      "outputs": [],
      "stateMutability": "payable",
      "type": "function"
    },
    {
      "inputs": [
        {
          "internalType": "address",
          "name": "nftAddress",
          "type": "address"
        },
        {
          "internalType": "uint256",
          "name": "tokenId",
          "type": "uint256"
        }
      ],
      "name": "cancelListing",
      "outputs": [],
      "stateMutability": "nonpayable",
      "type": "function"
    },
    {
      "inputs": [],
      "name": "erc721nft",
      "outputs": [
        {
          "internalType": "contract ERC721Mint",
          "name": "",
          "type": "address"
        }
      ],
      "stateMutability": "view",
      "type": "function"
    },
    {
      "inputs": [
        {
          "internalType": "address",
          "name": "nftAddress",
          "type": "address"
        },
        {
          "internalType": "uint256",
          "name": "tokenId",
          "type": "uint256"
        }
      ],
      "name": "getListing",
      "outputs": [
        {
          "components": [
            {
              "internalType": "uint256",
              "name": "price",
              "type": "uint256"
            },
            {
              "internalType": "address",
              "name": "seller",
              "type": "address"
            }
          ],
          "internalType": "struct ERC721Factory.Listing",
          "name": "",
          "type": "tuple"
        }
      ],
      "stateMutability": "view",
      "type": "function"
    },
    {
      "inputs": [
        {
          "internalType": "address",
          "name": "seller",
          "type": "address"
        }
      ],
      "name": "getProceeds",
      "outputs": [
        {
          "internalType": "uint256",
          "name": "",
          "type": "uint256"
        }
      ],
      "stateMutability": "view",
      "type": "function"
    },
    {
      "inputs": [
        {
          "internalType": "address",
          "name": "nftAddress",
          "type": "address"
        },
        {
          "internalType": "uint256",
          "name": "tokenId",
          "type": "uint256"
        },
        {
          "internalType": "uint256",
          "name": "price",
          "type": "uint256"
        }
      ],
      "name": "listItem",
      "outputs": [],
      "stateMutability": "nonpayable",
      "type": "function"
    },
    {
      "inputs": [
        {
          "internalType": "address",
          "name": "nftAddress",
          "type": "address"
        },
        {
          "internalType": "uint256",
          "name": "tokenId",
          "type": "uint256"
        },
        {
          "internalType": "uint256",
          "name": "newPrice",
          "type": "uint256"
        }
      ],
      "name": "updateListing",
      "outputs": [],
      "stateMutability": "nonpayable",
      "type": "function"
    },
    {
      "inputs": [],
      "name": "withdrawProceeds",
      "outputs": [],
      "stateMutability": "nonpayable",
      "type": "function"
    }
  ],
  "bytecode": "0x608060405234801561001057600080fd5b50600160008190555061183c806100286000396000f3fe60806040526004361061007b5760003560e01c80639038e6931161004e5780639038e6931461014e5780639f37092a14610165578063b2ddee0614610181578063f772adf1146101aa5761007b565b806330cfeda91461008057806345a6fbbb146100bd57806388700d1c146100e857806389bfd38f14610125575b600080fd5b34801561008c57600080fd5b506100a760048036038101906100a291906113ed565b6101d3565b6040516100b49190611433565b60405180910390f35b3480156100c957600080fd5b506100d261021c565b6040516100df91906114ad565b60405180910390f35b3480156100f457600080fd5b5061010f600480360381019061010a91906114f4565b610242565b60405161011c9190611581565b60405180910390f35b34801561013157600080fd5b5061014c6004803603810190610147919061159c565b61030d565b005b34801561015a57600080fd5b50610163610767565b005b61017f600480360381019061017a91906114f4565b6108da565b005b34801561018d57600080fd5b506101a860048036038101906101a391906114f4565b610d63565b005b3480156101b657600080fd5b506101d160048036038101906101cc919061159c565b611043565b005b6000600360008373ffffffffffffffffffffffffffffffffffffffff1673ffffffffffffffffffffffffffffffffffffffff168152602001908152602001600020549050919050565b600160009054906101000a900473ffffffffffffffffffffffffffffffffffffffff1681565b61024a61135a565b600260008473ffffffffffffffffffffffffffffffffffffffff1673ffffffffffffffffffffffffffffffffffffffff1681526020019081526020016000206000838152602001908152602001600020604051806040016040529081600082015481526020016001820160009054906101000a900473ffffffffffffffffffffffffffffffffffffffff1673ffffffffffffffffffffffffffffffffffffffff1673ffffffffffffffffffffffffffffffffffffffff1681525050905092915050565b8282336000600260008573ffffffffffffffffffffffffffffffffffffffff1673ffffffffffffffffffffffffffffffffffffffff1681526020019081526020016000206000848152602001908152602001600020604051806040016040529081600082015481526020016001820160009054906101000a900473ffffffffffffffffffffffffffffffffffffffff1673ffffffffffffffffffffffffffffffffffffffff1673ffffffffffffffffffffffffffffffffffffffff1681525050905060008160000151111561041b5783836040517f4a5568d50000000000000000000000000000000000000000000000000000000081526004016104129291906115fe565b60405180910390fd5b868633600083905060008173ffffffffffffffffffffffffffffffffffffffff16636352211e856040518263ffffffff1660e01b815260040161045e9190611433565b602060405180830381865afa15801561047b573d6000803e3d6000fd5b505050506040513d601f19601f8201168201806040525081019061049f919061163c565b90508073ffffffffffffffffffffffffffffffffffffffff168373ffffffffffffffffffffffffffffffffffffffff1614610506576040517f30cd747100000000000000000000000000000000000000000000000000000000815260040160405180910390fd5b60008a11610540576040517fe1abbfc500000000000000000000000000000000000000000000000000000000815260040160405180910390fd5b60008c90503073ffffffffffffffffffffffffffffffffffffffff168173ffffffffffffffffffffffffffffffffffffffff1663081812fc8e6040518263ffffffff1660e01b81526004016105959190611433565b602060405180830381865afa1580156105b2573d6000803e3d6000fd5b505050506040513d601f19601f820116820180604052508101906105d6919061163c565b73ffffffffffffffffffffffffffffffffffffffff1614610623576040517f4be3a2c500000000000000000000000000000000000000000000000000000000815260040160405180910390fd5b60405180604001604052808c81526020013373ffffffffffffffffffffffffffffffffffffffff16815250600260008f73ffffffffffffffffffffffffffffffffffffffff1673ffffffffffffffffffffffffffffffffffffffff16815260200190815260200160002060008e81526020019081526020016000206000820151816000015560208201518160010160006101000a81548173ffffffffffffffffffffffffffffffffffffffff021916908373ffffffffffffffffffffffffffffffffffffffff1602179055509050508b8d73ffffffffffffffffffffffffffffffffffffffff163373ffffffffffffffffffffffffffffffffffffffff167fd547e933094f12a9159076970143ebe73234e64480317844b0dcb36117116de48e6040516107509190611433565b60405180910390a450505050505050505050505050565b6000600360003373ffffffffffffffffffffffffffffffffffffffff1673ffffffffffffffffffffffffffffffffffffffff168152602001908152602001600020549050600081116107e5576040517fc4d8fa8700000000000000000000000000000000000000000000000000000000815260040160405180910390fd5b6000600360003373ffffffffffffffffffffffffffffffffffffffff1673ffffffffffffffffffffffffffffffffffffffff1681526020019081526020016000208190555060003373ffffffffffffffffffffffffffffffffffffffff16826040516108509061169a565b60006040518083038185875af1925050503d806000811461088d576040519150601f19603f3d011682016040523d82523d6000602084013e610892565b606091505b50509050806108d6576040517f08c379a00000000000000000000000000000000000000000000000000000000081526004016108cd9061170c565b60405180910390fd5b5050565b81816000600260008473ffffffffffffffffffffffffffffffffffffffff1673ffffffffffffffffffffffffffffffffffffffff1681526020019081526020016000206000838152602001908152602001600020604051806040016040529081600082015481526020016001820160009054906101000a900473ffffffffffffffffffffffffffffffffffffffff1673ffffffffffffffffffffffffffffffffffffffff1673ffffffffffffffffffffffffffffffffffffffff1681525050905060008160000151116109e65782826040517f6831488c0000000000000000000000000000000000000000000000000000000081526004016109dd9291906115fe565b60405180910390fd5b600260005403610a2b576040517f08c379a0000000000000000000000000000000000000000000000000000000008152600401610a2290611778565b60405180910390fd5b60026000819055506000600260008773ffffffffffffffffffffffffffffffffffffffff1673ffffffffffffffffffffffffffffffffffffffff1681526020019081526020016000206000868152602001908152602001600020604051806040016040529081600082015481526020016001820160009054906101000a900473ffffffffffffffffffffffffffffffffffffffff1673ffffffffffffffffffffffffffffffffffffffff1673ffffffffffffffffffffffffffffffffffffffff168152505090508060000151341015610b4357858582600001516040517f7c934565000000000000000000000000000000000000000000000000000000008152600401610b3a93929190611798565b60405180910390fd5b6000816020015173ffffffffffffffffffffffffffffffffffffffff1634604051610b6d9061169a565b60006040518083038185875af1925050503d8060008114610baa576040519150601f19603f3d011682016040523d82523d6000602084013e610baf565b606091505b5050905080610bf3576040517f08c379a0000000000000000000000000000000000000000000000000000000008152600401610bea9061170c565b60405180910390fd5b600260008873ffffffffffffffffffffffffffffffffffffffff1673ffffffffffffffffffffffffffffffffffffffff16815260200190815260200160002060008781526020019081526020016000206000808201600090556001820160006101000a81549073ffffffffffffffffffffffffffffffffffffffff021916905550508673ffffffffffffffffffffffffffffffffffffffff166342842e0e836020015133896040518463ffffffff1660e01b8152600401610cb6939291906117cf565b600060405180830381600087803b158015610cd057600080fd5b505af1158015610ce4573d6000803e3d6000fd5b50505050858773ffffffffffffffffffffffffffffffffffffffff163373ffffffffffffffffffffffffffffffffffffffff167f263223b1dd81e51054a4e6f791d45a4a1ddb4aadcd93a2dfd892615c3fdac1878560000151604051610d4a9190611433565b60405180910390a4505060016000819055505050505050565b818133600083905060008173ffffffffffffffffffffffffffffffffffffffff16636352211e856040518263ffffffff1660e01b8152600401610da69190611433565b602060405180830381865afa158015610dc3573d6000803e3d6000fd5b505050506040513d601f19601f82011682018060405250810190610de7919061163c565b90508073ffffffffffffffffffffffffffffffffffffffff168373ffffffffffffffffffffffffffffffffffffffff1614610e4e576040517f30cd747100000000000000000000000000000000000000000000000000000000815260040160405180910390fd5b86866000600260008473ffffffffffffffffffffffffffffffffffffffff1673ffffffffffffffffffffffffffffffffffffffff1681526020019081526020016000206000838152602001908152602001600020604051806040016040529081600082015481526020016001820160009054906101000a900473ffffffffffffffffffffffffffffffffffffffff1673ffffffffffffffffffffffffffffffffffffffff1673ffffffffffffffffffffffffffffffffffffffff168152505090506000816000015111610f5a5782826040517f6831488c000000000000000000000000000000000000000000000000000000008152600401610f519291906115fe565b60405180910390fd5b600260008b73ffffffffffffffffffffffffffffffffffffffff1673ffffffffffffffffffffffffffffffffffffffff16815260200190815260200160002060008a81526020019081526020016000206000808201600090556001820160006101000a81549073ffffffffffffffffffffffffffffffffffffffff02191690555050888a73ffffffffffffffffffffffffffffffffffffffff163373ffffffffffffffffffffffffffffffffffffffff167f9ba1a3cb55ce8d63d072a886f94d2a744f50cddf82128e897d0661f5ec62315860405160405180910390a450505050505050505050565b82826000600260008473ffffffffffffffffffffffffffffffffffffffff1673ffffffffffffffffffffffffffffffffffffffff1681526020019081526020016000206000838152602001908152602001600020604051806040016040529081600082015481526020016001820160009054906101000a900473ffffffffffffffffffffffffffffffffffffffff1673ffffffffffffffffffffffffffffffffffffffff1673ffffffffffffffffffffffffffffffffffffffff16815250509050600081600001511161114f5782826040517f6831488c0000000000000000000000000000000000000000000000000000000081526004016111469291906115fe565b60405180910390fd5b600260005403611194576040517f08c379a000000000000000000000000000000000000000000000000000000000815260040161118b90611778565b60405180910390fd5b6002600081905550858533600083905060008173ffffffffffffffffffffffffffffffffffffffff16636352211e856040518263ffffffff1660e01b81526004016111df9190611433565b602060405180830381865afa1580156111fc573d6000803e3d6000fd5b505050506040513d601f19601f82011682018060405250810190611220919061163c565b90508073ffffffffffffffffffffffffffffffffffffffff168373ffffffffffffffffffffffffffffffffffffffff1614611287576040517f30cd747100000000000000000000000000000000000000000000000000000000815260040160405180910390fd5b88600260008d73ffffffffffffffffffffffffffffffffffffffff1673ffffffffffffffffffffffffffffffffffffffff16815260200190815260200160002060008c815260200190815260200160002060000181905550898b73ffffffffffffffffffffffffffffffffffffffff163373ffffffffffffffffffffffffffffffffffffffff167fd547e933094f12a9159076970143ebe73234e64480317844b0dcb36117116de48c60405161133d9190611433565b60405180910390a450505050506001600081905550505050505050565b604051806040016040528060008152602001600073ffffffffffffffffffffffffffffffffffffffff1681525090565b600080fd5b600073ffffffffffffffffffffffffffffffffffffffff82169050919050565b60006113ba8261138f565b9050919050565b6113ca816113af565b81146113d557600080fd5b50565b6000813590506113e7816113c1565b92915050565b6000602082840312156114035761140261138a565b5b6000611411848285016113d8565b91505092915050565b6000819050919050565b61142d8161141a565b82525050565b60006020820190506114486000830184611424565b92915050565b6000819050919050565b600061147361146e6114698461138f565b61144e565b61138f565b9050919050565b600061148582611458565b9050919050565b60006114978261147a565b9050919050565b6114a78161148c565b82525050565b60006020820190506114c2600083018461149e565b92915050565b6114d18161141a565b81146114dc57600080fd5b50565b6000813590506114ee816114c8565b92915050565b6000806040838503121561150b5761150a61138a565b5b6000611519858286016113d8565b925050602061152a858286016114df565b9150509250929050565b61153d8161141a565b82525050565b61154c816113af565b82525050565b6040820160008201516115686000850182611534565b50602082015161157b6020850182611543565b50505050565b60006040820190506115966000830184611552565b92915050565b6000806000606084860312156115b5576115b461138a565b5b60006115c3868287016113d8565b93505060206115d4868287016114df565b92505060406115e5868287016114df565b9150509250925092565b6115f8816113af565b82525050565b600060408201905061161360008301856115ef565b6116206020830184611424565b9392505050565b600081519050611636816113c1565b92915050565b6000602082840312156116525761165161138a565b5b600061166084828501611627565b91505092915050565b600081905092915050565b50565b6000611684600083611669565b915061168f82611674565b600082019050919050565b60006116a582611677565b9150819050919050565b600082825260208201905092915050565b7f5472616e73666572206661696c65640000000000000000000000000000000000600082015250565b60006116f6600f836116af565b9150611701826116c0565b602082019050919050565b60006020820190508181036000830152611725816116e9565b9050919050565b7f5265656e7472616e637947756172643a207265656e7472616e742063616c6c00600082015250565b6000611762601f836116af565b915061176d8261172c565b602082019050919050565b6000602082019050818103600083015261179181611755565b9050919050565b60006060820190506117ad60008301866115ef565b6117ba6020830185611424565b6117c76040830184611424565b949350505050565b60006060820190506117e460008301866115ef565b6117f160208301856115ef565b6117fe6040830184611424565b94935050505056fea26469706673582212203ce0c84c66222803d23f71b80300f017f6583f2a5f221d5f1663393ae2e9a73a64736f6c63430008110033",
  "linkReferences": {},
  "deployedLinkReferences": {}
}