{
  "_format": "hh-sol-artifact-1",
  "contractName": "AuctionFactory",
  "sourceName": "contracts/AuctionFactory.sol",
  "abi": [
    {
      "inputs": [],
      "stateMutability": "nonpayable",
      "type": "constructor"
    },
    {
      "anonymous": false,
      "inputs": [
        {
          "indexed": false,
          "internalType": "address",
          "name": "auctionContract",
          "type": "address"
        },
        {
          "indexed": false,
          "internalType": "address",
          "name": "owner",
          "type": "address"
        },
        {
          "indexed": false,
          "internalType": "uint256",
          "name": "numAuctions",
          "type": "uint256"
        },
        {
          "indexed": false,
          "internalType": "address[]",
          "name": "allAuctions",
          "type": "address[]"
        }
      ],
      "name": "AuctionCreated",
      "type": "event"
    },
    {
      "inputs": [],
      "name": "allAuctions",
      "outputs": [
        {
          "internalType": "address[]",
          "name": "",
          "type": "address[]"
        }
      ],
      "stateMutability": "view",
      "type": "function"
    },
    {
      "inputs": [
        {
          "internalType": "uint256",
          "name": "",
          "type": "uint256"
        }
      ],
      "name": "auctions",
      "outputs": [
        {
          "internalType": "address",
          "name": "",
          "type": "address"
        }
      ],
      "stateMutability": "view",
      "type": "function"
    },
    {
      "inputs": [
        {
          "internalType": "uint256",
          "name": "bidIncrement",
          "type": "uint256"
        },
        {
          "internalType": "uint256",
          "name": "startBlock",
          "type": "uint256"
        },
        {
          "internalType": "uint256",
          "name": "endBlock",
          "type": "uint256"
        }
      ],
      "name": "createAuction",
      "outputs": [],
      "stateMutability": "nonpayable",
      "type": "function"
    }
  ],
  "bytecode": "0x608060405234801561001057600080fd5b506118b5806100206000396000f3fe608060405234801561001057600080fd5b50600436106100415760003560e01c80631bbcd4a514610046578063571a26a014610064578063cda4beef14610094575b600080fd5b61004e6100b0565b60405161005b9190610364565b60405180910390f35b61007e600480360381019061007991906103c1565b61013e565b60405161008b91906103fd565b60405180910390f35b6100ae60048036038101906100a99190610418565b61017d565b005b6060600080548060200260200160405190810160405280929190818152602001828054801561013457602002820191906000526020600020905b8160009054906101000a900473ffffffffffffffffffffffffffffffffffffffff1673ffffffffffffffffffffffffffffffffffffffff16815260200190600101908083116100ea575b5050505050905090565b6000818154811061014e57600080fd5b906000526020600020016000915054906101000a900473ffffffffffffffffffffffffffffffffffffffff1681565b60003384848460405161018f90610267565b61019c949392919061047a565b604051809103906000f0801580156101b8573d6000803e3d6000fd5b5090506000819080600181540180825580915050600190039060005260206000200160009091909190916101000a81548173ffffffffffffffffffffffffffffffffffffffff021916908373ffffffffffffffffffffffffffffffffffffffff1602179055507f0d314047f0d1e39dbbd521f0844c35332083a15926b906540faa68e1a4262b688133600080549050600060405161025994939291906105ab565b60405180910390a150505050565b611288806105f883390190565b600081519050919050565b600082825260208201905092915050565b6000819050602082019050919050565b600073ffffffffffffffffffffffffffffffffffffffff82169050919050565b60006102cb826102a0565b9050919050565b6102db816102c0565b82525050565b60006102ed83836102d2565b60208301905092915050565b6000602082019050919050565b600061031182610274565b61031b818561027f565b935061032683610290565b8060005b8381101561035757815161033e88826102e1565b9750610349836102f9565b92505060018101905061032a565b5085935050505092915050565b6000602082019050818103600083015261037e8184610306565b905092915050565b600080fd5b6000819050919050565b61039e8161038b565b81146103a957600080fd5b50565b6000813590506103bb81610395565b92915050565b6000602082840312156103d7576103d6610386565b5b60006103e5848285016103ac565b91505092915050565b6103f7816102c0565b82525050565b600060208201905061041260008301846103ee565b92915050565b60008060006060848603121561043157610430610386565b5b600061043f868287016103ac565b9350506020610450868287016103ac565b9250506040610461868287016103ac565b9150509250925092565b6104748161038b565b82525050565b600060808201905061048f60008301876103ee565b61049c602083018661046b565b6104a9604083018561046b565b6104b6606083018461046b565b95945050505050565b600081549050919050565b60008190508160005260206000209050919050565b60008160001c9050919050565b600073ffffffffffffffffffffffffffffffffffffffff82169050919050565b600061051f61051a836104df565b6104ec565b9050919050565b6000610532825461050c565b9050919050565b6000600182019050919050565b6000610551826104bf565b61055b818561027f565b9350610566836104ca565b8060005b8381101561059e5761057b82610526565b61058588826102e1565b975061059083610539565b92505060018101905061056a565b5085935050505092915050565b60006080820190506105c060008301876103ee565b6105cd60208301866103ee565b6105da604083018561046b565b81810360608301526105ec8184610546565b90509594505050505056fe60806040523480156200001157600080fd5b506040516200128838038062001288833981810160405281019062000037919062000190565b8082106200004457600080fd5b438210156200005257600080fd5b600073ffffffffffffffffffffffffffffffffffffffff168473ffffffffffffffffffffffffffffffffffffffff16036200008c57600080fd5b836000806101000a81548173ffffffffffffffffffffffffffffffffffffffff021916908373ffffffffffffffffffffffffffffffffffffffff1602179055508260018190555081600281905550806003819055505050505062000202565b600080fd5b600073ffffffffffffffffffffffffffffffffffffffff82169050919050565b60006200011d82620000f0565b9050919050565b6200012f8162000110565b81146200013b57600080fd5b50565b6000815190506200014f8162000124565b92915050565b6000819050919050565b6200016a8162000155565b81146200017657600080fd5b50565b6000815190506200018a816200015f565b92915050565b60008060008060808587031215620001ad57620001ac620000eb565b5b6000620001bd878288016200013e565b9450506020620001d08782880162000179565b9350506040620001e38782880162000179565b9250506060620001f68782880162000179565b91505092959194509250565b61107680620002126000396000f3fe6080604052600436106100dd5760003560e01c80638fa8b7901161007f578063c623674f11610059578063c623674f146102a2578063ce10cf80146102cd578063ecfc7ecc1461030a578063f5b56c5614610328576100dd565b80638fa8b7901461022157806391f901571461024c578063b3cc167a14610277576100dd565b806348cd4cb1116100bb57806348cd4cb1146101635780634979440a1461018e5780637ae2b5c7146101b95780638da5cb5b146101f6576100dd565b8063083c6323146100e25780633ccfd60b1461010d5780633f9942ff14610138575b600080fd5b3480156100ee57600080fd5b506100f7610353565b6040516101049190610c96565b60405180910390f35b34801561011957600080fd5b50610122610359565b60405161012f9190610ccc565b60405180910390f35b34801561014457600080fd5b5061014d61071e565b60405161015a9190610ccc565b60405180910390f35b34801561016f57600080fd5b50610178610731565b6040516101859190610c96565b60405180910390f35b34801561019a57600080fd5b506101a3610737565b6040516101b09190610c96565b60405180910390f35b3480156101c557600080fd5b506101e060048036038101906101db9190610d18565b6107a0565b6040516101ed9190610c96565b60405180910390f35b34801561020257600080fd5b5061020b6107bc565b6040516102189190610d99565b60405180910390f35b34801561022d57600080fd5b506102366107e0565b6040516102439190610ccc565b60405180910390f35b34801561025857600080fd5b506102616108b2565b60405161026e9190610d99565b60405180910390f35b34801561028357600080fd5b5061028c6108d8565b6040516102999190610c96565b60405180910390f35b3480156102ae57600080fd5b506102b76108de565b6040516102c49190610e44565b60405180910390f35b3480156102d957600080fd5b506102f460048036038101906102ef9190610e92565b61096c565b6040516103019190610c96565b60405180910390f35b610312610984565b60405161031f9190610ccc565b60405180910390f35b34801561033457600080fd5b5061033d610c77565b60405161034a9190610c96565b60405180910390f35b60035481565b6000600354431080156103795750600560009054906101000a900460ff16155b1561038357600080fd5b600080600560009054906101000a900460ff16156103e557339150600860008373ffffffffffffffffffffffffffffffffffffffff1673ffffffffffffffffffffffffffffffffffffffff168152602001908152602001600020549050610639565b60008054906101000a900473ffffffffffffffffffffffffffffffffffffffff1673ffffffffffffffffffffffffffffffffffffffff163373ffffffffffffffffffffffffffffffffffffffff160361048257600760009054906101000a900473ffffffffffffffffffffffffffffffffffffffff16915060065490506001600960006101000a81548160ff021916908315150217905550610638565b600760009054906101000a900473ffffffffffffffffffffffffffffffffffffffff1673ffffffffffffffffffffffffffffffffffffffff163373ffffffffffffffffffffffffffffffffffffffff16036105f157600760009054906101000a900473ffffffffffffffffffffffffffffffffffffffff169150600960009054906101000a900460ff161561057a5760086000600760009054906101000a900473ffffffffffffffffffffffffffffffffffffffff1673ffffffffffffffffffffffffffffffffffffffff1673ffffffffffffffffffffffffffffffffffffffff1681526020019081526020016000205490506105ec565b60065460086000600760009054906101000a900473ffffffffffffffffffffffffffffffffffffffff1673ffffffffffffffffffffffffffffffffffffffff1673ffffffffffffffffffffffffffffffffffffffff168152602001908152602001600020546105e99190610eee565b90505b610637565b339150600860008373ffffffffffffffffffffffffffffffffffffffff1673ffffffffffffffffffffffffffffffffffffffff1681526020019081526020016000205490505b5b5b6000810361064657600080fd5b80600860008473ffffffffffffffffffffffffffffffffffffffff1673ffffffffffffffffffffffffffffffffffffffff16815260200190815260200160002060008282546106959190610eee565b925050819055503373ffffffffffffffffffffffffffffffffffffffff166108fc829081150290604051600060405180830381858888f193505050506106da57600080fd5b7f0ec497a8ae5b1ba29c60470ef651def995fac3deebbdcc56c47a4e5f51a4c2bd33838360405161070d93929190610f22565b60405180910390a160019250505090565b600560009054906101000a900460ff1681565b60025481565b600060086000600760009054906101000a900473ffffffffffffffffffffffffffffffffffffffff1673ffffffffffffffffffffffffffffffffffffffff1673ffffffffffffffffffffffffffffffffffffffff16815260200190815260200160002054905090565b6000818310156107b2578290506107b6565b8190505b92915050565b60008054906101000a900473ffffffffffffffffffffffffffffffffffffffff1681565b60008060009054906101000a900473ffffffffffffffffffffffffffffffffffffffff1673ffffffffffffffffffffffffffffffffffffffff163373ffffffffffffffffffffffffffffffffffffffff161461083b57600080fd5b60035443111561084a57600080fd5b600560009054906101000a900460ff161561086457600080fd5b6001600560006101000a81548160ff0219169083151502179055507f462b6ca7f632601af1295aeb320851f50e8e630a309173f23535845ea4bfb3b960405160405180910390a16001905090565b600760009054906101000a900473ffffffffffffffffffffffffffffffffffffffff1681565b60015481565b600480546108eb90610f88565b80601f016020809104026020016040519081016040528092919081815260200182805461091790610f88565b80156109645780601f1061093957610100808354040283529160200191610964565b820191906000526020600020905b81548152906001019060200180831161094757829003601f168201915b505050505081565b60086020528060005260406000206000915090505481565b600060025443101561099557600080fd5b6003544311156109a457600080fd5b600560009054906101000a900460ff16156109be57600080fd5b60008054906101000a900473ffffffffffffffffffffffffffffffffffffffff1673ffffffffffffffffffffffffffffffffffffffff163373ffffffffffffffffffffffffffffffffffffffff1603610a1657600080fd5b60003403610a2357600080fd5b600034600860003373ffffffffffffffffffffffffffffffffffffffff1673ffffffffffffffffffffffffffffffffffffffff16815260200190815260200160002054610a709190610fb9565b90506006548111610a8057600080fd5b600060086000600760009054906101000a900473ffffffffffffffffffffffffffffffffffffffff1673ffffffffffffffffffffffffffffffffffffffff1673ffffffffffffffffffffffffffffffffffffffff16815260200190815260200160002054905081600860003373ffffffffffffffffffffffffffffffffffffffff1673ffffffffffffffffffffffffffffffffffffffff16815260200190815260200160002081905550808211610b5357610b4860015483610b429190610fb9565b826107a0565b600681905550610c0b565b600760009054906101000a900473ffffffffffffffffffffffffffffffffffffffff1673ffffffffffffffffffffffffffffffffffffffff163373ffffffffffffffffffffffffffffffffffffffff1614610c075733600760006101000a81548173ffffffffffffffffffffffffffffffffffffffff021916908373ffffffffffffffffffffffffffffffffffffffff160217905550610c008260015483610bfb9190610fb9565b6107a0565b6006819055505b8190505b7ff152f4ff5e488c55370a2d53925a55055228ebd8ec95bd0251bbb299e48786b03383600760009054906101000a900473ffffffffffffffffffffffffffffffffffffffff1684600654604051610c66959493929190610fed565b60405180910390a160019250505090565b60065481565b6000819050919050565b610c9081610c7d565b82525050565b6000602082019050610cab6000830184610c87565b92915050565b60008115159050919050565b610cc681610cb1565b82525050565b6000602082019050610ce16000830184610cbd565b92915050565b600080fd5b610cf581610c7d565b8114610d0057600080fd5b50565b600081359050610d1281610cec565b92915050565b60008060408385031215610d2f57610d2e610ce7565b5b6000610d3d85828601610d03565b9250506020610d4e85828601610d03565b9150509250929050565b600073ffffffffffffffffffffffffffffffffffffffff82169050919050565b6000610d8382610d58565b9050919050565b610d9381610d78565b82525050565b6000602082019050610dae6000830184610d8a565b92915050565b600081519050919050565b600082825260208201905092915050565b60005b83811015610dee578082015181840152602081019050610dd3565b60008484015250505050565b6000601f19601f8301169050919050565b6000610e1682610db4565b610e208185610dbf565b9350610e30818560208601610dd0565b610e3981610dfa565b840191505092915050565b60006020820190508181036000830152610e5e8184610e0b565b905092915050565b610e6f81610d78565b8114610e7a57600080fd5b50565b600081359050610e8c81610e66565b92915050565b600060208284031215610ea857610ea7610ce7565b5b6000610eb684828501610e7d565b91505092915050565b7f4e487b7100000000000000000000000000000000000000000000000000000000600052601160045260246000fd5b6000610ef982610c7d565b9150610f0483610c7d565b9250828203905081811115610f1c57610f1b610ebf565b5b92915050565b6000606082019050610f376000830186610d8a565b610f446020830185610d8a565b610f516040830184610c87565b949350505050565b7f4e487b7100000000000000000000000000000000000000000000000000000000600052602260045260246000fd5b60006002820490506001821680610fa057607f821691505b602082108103610fb357610fb2610f59565b5b50919050565b6000610fc482610c7d565b9150610fcf83610c7d565b9250828201905080821115610fe757610fe6610ebf565b5b92915050565b600060a0820190506110026000830188610d8a565b61100f6020830187610c87565b61101c6040830186610d8a565b6110296060830185610c87565b6110366080830184610c87565b969550505050505056fea264697066735822122072498fa78c159fde6a77de9a2fc55c4c6353f802168fb47dc7eee53759a7bec764736f6c63430008110033a26469706673582212209df4cb39c584b068d0eba3a8680b4b1b4e8c9e34810bd9c81e62c298fcbf824264736f6c63430008110033",
  "linkReferences": {},
  "deployedLinkReferences": {}
}