{
  "_format": "hh-sol-artifact-1",
  "contractName": "BlackVeMarket",
  "sourceName": "contracts/BlackVeMarket.sol",
  "address": "0x58b3157e5b63c76864562dff7f5f4c60b72e33cd",
  "abi": [
    {
      "inputs": [
        {
          "internalType": "address",
          "name": "_marketAddr",
          "type": "address"
        },
        {
          "internalType": "uint256",
          "name": "_marketFee",
          "type": "uint256"
        },
        {
          "internalType": "address",
          "name": "_charityAddr",
          "type": "address"
        },
        {
          "internalType": "uint256",
          "name": "_charityFee",
          "type": "uint256"
        },
        {
          "internalType": "address",
          "name": "_devAddr",
          "type": "address"
        },
        {
          "internalType": "uint256",
          "name": "_devFee",
          "type": "uint256"
        }
      ],
      "stateMutability": "nonpayable",
      "type": "constructor"
    },
    {
      "anonymous": false,
      "inputs": [
        {
          "indexed": true,
          "internalType": "uint256",
          "name": "saleId",
          "type": "uint256"
        },
        {
          "indexed": true,
          "internalType": "address",
          "name": "wallet",
          "type": "address"
        },
        {
          "indexed": false,
          "internalType": "uint256",
          "name": "created",
          "type": "uint256"
        }
      ],
      "name": "CanceledAuction",
      "type": "event"
    },
    {
      "anonymous": false,
      "inputs": [
        {
          "indexed": true,
          "internalType": "uint256",
          "name": "saleId",
          "type": "uint256"
        },
        {
          "indexed": true,
          "internalType": "address",
          "name": "wallet",
          "type": "address"
        },
        {
          "indexed": true,
          "internalType": "address",
          "name": "contractAddr",
          "type": "address"
        },
        {
          "indexed": false,
          "internalType": "uint256",
          "name": "tokenId",
          "type": "uint256"
        },
        {
          "indexed": false,
          "internalType": "uint256",
          "name": "amount",
          "type": "uint256"
        },
        {
          "indexed": false,
          "internalType": "uint256",
          "name": "created",
          "type": "uint256"
        }
      ],
      "name": "Claimed",
      "type": "event"
    },
    {
      "anonymous": false,
      "inputs": [
        {
          "indexed": false,
          "internalType": "uint256",
          "name": "saleId",
          "type": "uint256"
        },
        {
          "indexed": true,
          "internalType": "address",
          "name": "wallet",
          "type": "address"
        },
        {
          "indexed": true,
          "internalType": "address",
          "name": "contractAddr",
          "type": "address"
        },
        {
          "indexed": false,
          "internalType": "uint256",
          "name": "tokenId",
          "type": "uint256"
        },
        {
          "indexed": false,
          "internalType": "uint256",
          "name": "created",
          "type": "uint256"
        }
      ],
      "name": "CreatedAuction",
      "type": "event"
    },
    {
      "anonymous": false,
      "inputs": [
        {
          "indexed": true,
          "internalType": "uint256",
          "name": "saleId",
          "type": "uint256"
        },
        {
          "indexed": true,
          "internalType": "address",
          "name": "wallet",
          "type": "address"
        },
        {
          "indexed": true,
          "internalType": "address",
          "name": "contractAddr",
          "type": "address"
        },
        {
          "indexed": false,
          "internalType": "uint256",
          "name": "tokenId",
          "type": "uint256"
        },
        {
          "indexed": false,
          "internalType": "uint256",
          "name": "amount",
          "type": "uint256"
        },
        {
          "indexed": false,
          "internalType": "uint256",
          "name": "created",
          "type": "uint256"
        }
      ],
      "name": "FixedBought",
      "type": "event"
    },
    {
      "anonymous": false,
      "inputs": [
        {
          "indexed": true,
          "internalType": "uint256",
          "name": "saleId",
          "type": "uint256"
        },
        {
          "indexed": true,
          "internalType": "address",
          "name": "wallet",
          "type": "address"
        },
        {
          "indexed": false,
          "internalType": "uint256",
          "name": "amount",
          "type": "uint256"
        },
        {
          "indexed": false,
          "internalType": "uint256",
          "name": "created",
          "type": "uint256"
        }
      ],
      "name": "NewHighestOffer",
      "type": "event"
    },
    {
      "anonymous": false,
      "inputs": [
        {
          "indexed": true,
          "internalType": "uint256",
          "name": "saleId",
          "type": "uint256"
        },
        {
          "indexed": true,
          "internalType": "address",
          "name": "wallet",
          "type": "address"
        },
        {
          "indexed": false,
          "internalType": "address",
          "name": "contractAddr",
          "type": "address"
        },
        {
          "indexed": false,
          "internalType": "uint256",
          "name": "tokenId",
          "type": "uint256"
        },
        {
          "indexed": false,
          "internalType": "uint256",
          "name": "created",
          "type": "uint256"
        }
      ],
      "name": "NewSaleIdCreated",
      "type": "event"
    },
    {
      "anonymous": false,
      "inputs": [
        {
          "indexed": true,
          "internalType": "address",
          "name": "previousOwner",
          "type": "address"
        },
        {
          "indexed": true,
          "internalType": "address",
          "name": "newOwner",
          "type": "address"
        }
      ],
      "name": "OwnershipTransferred",
      "type": "event"
    },
    {
      "anonymous": false,
      "inputs": [
        {
          "indexed": false,
          "internalType": "address",
          "name": "account",
          "type": "address"
        }
      ],
      "name": "Paused",
      "type": "event"
    },
    {
      "anonymous": false,
      "inputs": [
        {
          "indexed": true,
          "internalType": "uint256",
          "name": "saleId",
          "type": "uint256"
        },
        {
          "indexed": true,
          "internalType": "address",
          "name": "sellersWallet",
          "type": "address"
        },
        {
          "indexed": false,
          "internalType": "address",
          "name": "buyerWallet",
          "type": "address"
        },
        {
          "indexed": false,
          "internalType": "uint256",
          "name": "created",
          "type": "uint256"
        }
      ],
      "name": "Refunded",
      "type": "event"
    },
    {
      "anonymous": false,
      "inputs": [
        {
          "indexed": true,
          "internalType": "uint256",
          "name": "saleId",
          "type": "uint256"
        },
        {
          "indexed": true,
          "internalType": "address",
          "name": "wallet",
          "type": "address"
        },
        {
          "indexed": false,
          "internalType": "address",
          "name": "contractAddr",
          "type": "address"
        },
        {
          "indexed": false,
          "internalType": "uint256",
          "name": "tokenId",
          "type": "uint256"
        },
        {
          "indexed": false,
          "internalType": "uint256",
          "name": "created",
          "type": "uint256"
        }
      ],
      "name": "SaleCXL",
      "type": "event"
    },
    {
      "anonymous": false,
      "inputs": [
        {
          "indexed": false,
          "internalType": "address",
          "name": "account",
          "type": "address"
        }
      ],
      "name": "Unpaused",
      "type": "event"
    },
    {
      "inputs": [
        {
          "internalType": "address",
          "name": "",
          "type": "address"
        },
        {
          "internalType": "uint256",
          "name": "",
          "type": "uint256"
        }
      ],
      "name": "auctionSaleNftList",
      "outputs": [
        {
          "internalType": "uint256",
          "name": "",
          "type": "uint256"
        }
      ],
      "stateMutability": "view",
      "type": "function"
    },
    {
      "inputs": [
        {
          "internalType": "uint256",
          "name": "_auctionId",
          "type": "uint256"
        }
      ],
      "name": "bidAuctionSale",
      "outputs": [],
      "stateMutability": "payable",
      "type": "function"
    },
    {
      "inputs": [
        {
          "internalType": "uint256",
          "name": "_auctionId",
          "type": "uint256"
        }
      ],
      "name": "buyAuctionSale",
      "outputs": [],
      "stateMutability": "payable",
      "type": "function"
    },
    {
      "inputs": [
        {
          "internalType": "uint256",
          "name": "",
          "type": "uint256"
        }
      ],
      "name": "buyerBySaleId",
      "outputs": [
        {
          "internalType": "address",
          "name": "",
          "type": "address"
        }
      ],
      "stateMutability": "view",
      "type": "function"
    },
    {
      "inputs": [
        {
          "internalType": "uint256",
          "name": "_auctionId",
          "type": "uint256"
        }
      ],
      "name": "cancelAuctionSale",
      "outputs": [],
      "stateMutability": "nonpayable",
      "type": "function"
    },
    {
      "inputs": [
        {
          "internalType": "uint256",
          "name": "_saleId",
          "type": "uint256"
        }
      ],
      "name": "cancelSale",
      "outputs": [],
      "stateMutability": "nonpayable",
      "type": "function"
    },
    {
      "inputs": [
        {
          "internalType": "address",
          "name": "_charityAddr",
          "type": "address"
        }
      ],
      "name": "changeCharityAddress",
      "outputs": [],
      "stateMutability": "nonpayable",
      "type": "function"
    },
    {
      "inputs": [
        {
          "internalType": "uint256",
          "name": "_charityFee",
          "type": "uint256"
        }
      ],
      "name": "changeCharityFee",
      "outputs": [],
      "stateMutability": "nonpayable",
      "type": "function"
    },
    {
      "inputs": [
        {
          "internalType": "address",
          "name": "_marketAddr",
          "type": "address"
        }
      ],
      "name": "changeMarketAddress",
      "outputs": [],
      "stateMutability": "nonpayable",
      "type": "function"
    },
    {
      "inputs": [
        {
          "internalType": "uint256",
          "name": "_marketFee",
          "type": "uint256"
        }
      ],
      "name": "changeMarketFee",
      "outputs": [],
      "stateMutability": "nonpayable",
      "type": "function"
    },
    {
      "inputs": [],
      "name": "charityAddr",
      "outputs": [
        {
          "internalType": "address",
          "name": "",
          "type": "address"
        }
      ],
      "stateMutability": "view",
      "type": "function"
    },
    {
      "inputs": [],
      "name": "charityFee",
      "outputs": [
        {
          "internalType": "uint256",
          "name": "",
          "type": "uint256"
        }
      ],
      "stateMutability": "view",
      "type": "function"
    },
    {
      "inputs": [
        {
          "internalType": "uint256",
          "name": "_auctionId",
          "type": "uint256"
        }
      ],
      "name": "claim",
      "outputs": [],
      "stateMutability": "nonpayable",
      "type": "function"
    },
    {
      "inputs": [
        {
          "internalType": "uint256",
          "name": "",
          "type": "uint256"
        }
      ],
      "name": "claimedAuctions",
      "outputs": [
        {
          "internalType": "bool",
          "name": "",
          "type": "bool"
        }
      ],
      "stateMutability": "view",
      "type": "function"
    },
    {
      "inputs": [
        {
          "internalType": "address",
          "name": "_contractAddr",
          "type": "address"
        },
        {
          "internalType": "uint256",
          "name": "_tokenId",
          "type": "uint256"
        },
        {
          "internalType": "uint256",
          "name": "_minPrice",
          "type": "uint256"
        },
        {
          "internalType": "uint256",
          "name": "_fixedPrice",
          "type": "uint256"
        },
        {
          "internalType": "uint256",
          "name": "_duration",
          "type": "uint256"
        }
      ],
      "name": "createAuctionSale",
      "outputs": [
        {
          "internalType": "uint256",
          "name": "",
          "type": "uint256"
        }
      ],
      "stateMutability": "payable",
      "type": "function"
    },
    {
      "inputs": [],
      "name": "devAddr",
      "outputs": [
        {
          "internalType": "address",
          "name": "",
          "type": "address"
        }
      ],
      "stateMutability": "view",
      "type": "function"
    },
    {
      "inputs": [],
      "name": "devFee",
      "outputs": [
        {
          "internalType": "uint256",
          "name": "",
          "type": "uint256"
        }
      ],
      "stateMutability": "view",
      "type": "function"
    },
    {
      "inputs": [
        {
          "internalType": "uint256",
          "name": "",
          "type": "uint256"
        }
      ],
      "name": "highestOffers",
      "outputs": [
        {
          "internalType": "address",
          "name": "buyer",
          "type": "address"
        },
        {
          "internalType": "uint256",
          "name": "offer",
          "type": "uint256"
        },
        {
          "internalType": "uint256",
          "name": "date",
          "type": "uint256"
        }
      ],
      "stateMutability": "view",
      "type": "function"
    },
    {
      "inputs": [],
      "name": "marketAddr",
      "outputs": [
        {
          "internalType": "address",
          "name": "",
          "type": "address"
        }
      ],
      "stateMutability": "view",
      "type": "function"
    },
    {
      "inputs": [],
      "name": "marketFee",
      "outputs": [
        {
          "internalType": "uint256",
          "name": "",
          "type": "uint256"
        }
      ],
      "stateMutability": "view",
      "type": "function"
    },
    {
      "inputs": [
        {
          "internalType": "uint256",
          "name": "",
          "type": "uint256"
        }
      ],
      "name": "offersCount",
      "outputs": [
        {
          "internalType": "uint256",
          "name": "",
          "type": "uint256"
        }
      ],
      "stateMutability": "view",
      "type": "function"
    },
    {
      "inputs": [
        {
          "internalType": "uint256",
          "name": "",
          "type": "uint256"
        },
        {
          "internalType": "uint256",
          "name": "",
          "type": "uint256"
        }
      ],
      "name": "offersList",
      "outputs": [
        {
          "internalType": "address",
          "name": "buyer",
          "type": "address"
        },
        {
          "internalType": "uint256",
          "name": "offer",
          "type": "uint256"
        },
        {
          "internalType": "uint256",
          "name": "date",
          "type": "uint256"
        }
      ],
      "stateMutability": "view",
      "type": "function"
    },
    {
      "inputs": [],
      "name": "owner",
      "outputs": [
        {
          "internalType": "address",
          "name": "",
          "type": "address"
        }
      ],
      "stateMutability": "view",
      "type": "function"
    },
    {
      "inputs": [],
      "name": "paused",
      "outputs": [
        {
          "internalType": "bool",
          "name": "",
          "type": "bool"
        }
      ],
      "stateMutability": "view",
      "type": "function"
    },
    {
      "inputs": [],
      "name": "renounceOwnership",
      "outputs": [],
      "stateMutability": "nonpayable",
      "type": "function"
    },
    {
      "inputs": [
        {
          "internalType": "uint256",
          "name": "",
          "type": "uint256"
        }
      ],
      "name": "saleList",
      "outputs": [
        {
          "internalType": "address",
          "name": "contractAddr",
          "type": "address"
        },
        {
          "internalType": "uint256",
          "name": "tokenId",
          "type": "uint256"
        },
        {
          "internalType": "address",
          "name": "seller",
          "type": "address"
        },
        {
          "internalType": "uint256",
          "name": "minPrice",
          "type": "uint256"
        },
        {
          "internalType": "uint256",
          "name": "fixedPrice",
          "type": "uint256"
        },
        {
          "internalType": "uint256",
          "name": "startedAt",
          "type": "uint256"
        },
        {
          "internalType": "uint256",
          "name": "duration",
          "type": "uint256"
        },
        {
          "internalType": "uint256",
          "name": "finalPrice",
          "type": "uint256"
        }
      ],
      "stateMutability": "view",
      "type": "function"
    },
    {
      "inputs": [],
      "name": "salesCount",
      "outputs": [
        {
          "internalType": "uint256",
          "name": "",
          "type": "uint256"
        }
      ],
      "stateMutability": "view",
      "type": "function"
    },
    {
      "inputs": [
        {
          "internalType": "address",
          "name": "newOwner",
          "type": "address"
        }
      ],
      "name": "transferOwnership",
      "outputs": [],
      "stateMutability": "nonpayable",
      "type": "function"
    }
  ],
  "bytecode": "0x60806040523480156200001157600080fd5b5060405162004b0938038062004b098339818101604052810190620000379190620002ce565b620000576200004b6200015d60201b60201c565b6200016560201b60201c565b600180819055506000600260006101000a81548160ff02191690831515021790555085600460006101000a81548173ffffffffffffffffffffffffffffffffffffffff021916908373ffffffffffffffffffffffffffffffffffffffff1602179055508460078190555083600560006101000a81548173ffffffffffffffffffffffffffffffffffffffff021916908373ffffffffffffffffffffffffffffffffffffffff1602179055508260088190555081600660006101000a81548173ffffffffffffffffffffffffffffffffffffffff021916908373ffffffffffffffffffffffffffffffffffffffff160217905550806009819055505050505050506200036a565b600033905090565b60008060009054906101000a900473ffffffffffffffffffffffffffffffffffffffff169050816000806101000a81548173ffffffffffffffffffffffffffffffffffffffff021916908373ffffffffffffffffffffffffffffffffffffffff1602179055508173ffffffffffffffffffffffffffffffffffffffff168173ffffffffffffffffffffffffffffffffffffffff167f8be0079c531659141344cd1fd0a4f28419497f9722a3daafe3b4186f6b6457e060405160405180910390a35050565b600080fd5b600073ffffffffffffffffffffffffffffffffffffffff82169050919050565b60006200025b826200022e565b9050919050565b6200026d816200024e565b81146200027957600080fd5b50565b6000815190506200028d8162000262565b92915050565b6000819050919050565b620002a88162000293565b8114620002b457600080fd5b50565b600081519050620002c8816200029d565b92915050565b60008060008060008060c08789031215620002ee57620002ed62000229565b5b6000620002fe89828a016200027c565b96505060206200031189828a01620002b7565b95505060406200032489828a016200027c565b94505060606200033789828a01620002b7565b93505060806200034a89828a016200027c565b92505060a06200035d89828a01620002b7565b9150509295509295509295565b61478f806200037a6000396000f3fe6080604052600436106101b75760003560e01c806380f5efb5116100ec578063d845b2411161008a578063e870c48711610064578063e870c487146105fb578063ecfca89914610624578063f2fde38b1461064f578063fe4de60c14610678576101b7565b8063d845b24114610554578063d870da1014610593578063da09c72c146105d0576101b7565b80639fbe791a116100c65780639fbe791a14610493578063bd94b005146104d0578063c3ea3b79146104f9578063cefa74cc14610529576101b7565b806380f5efb5146104025780638da5cb5b1461043f5780638dbc24b01461046a576101b7565b80635c975abb11610159578063652b994411610133578063652b994414610356578063682789a8146103955780636827e764146103c0578063715018a6146103eb576101b7565b80635c975abb146102c55780635e4e45ea146102f05780636138dd071461032d576101b7565b8063379607f511610195578063379607f51461022c5780633f9391381461025557806340d970b31461027157806342b36c171461029c576101b7565b80630ccf2156146101bc5780632f5c4863146101e757806335aed77814610203575b600080fd5b3480156101c857600080fd5b506101d16106bc565b6040516101de9190613430565b60405180910390f35b61020160048036038101906101fc919061347c565b6106c2565b005b34801561020f57600080fd5b5061022a60048036038101906102259190613507565b610c37565b005b34801561023857600080fd5b50610253600480360381019061024e919061347c565b610d66565b005b61026f600480360381019061026a919061347c565b611376565b005b34801561027d57600080fd5b506102866119ab565b6040516102939190613543565b60405180910390f35b3480156102a857600080fd5b506102c360048036038101906102be919061347c565b6119d1565b005b3480156102d157600080fd5b506102da611e83565b6040516102e79190613579565b60405180910390f35b3480156102fc57600080fd5b5061031760048036038101906103129190613594565b611e9a565b6040516103249190613430565b60405180910390f35b34801561033957600080fd5b50610354600480360381019061034f919061347c565b611ebf565b005b34801561036257600080fd5b5061037d6004803603810190610378919061347c565b611f88565b60405161038c939291906135d4565b60405180910390f35b3480156103a157600080fd5b506103aa611fd2565b6040516103b79190613430565b60405180910390f35b3480156103cc57600080fd5b506103d5611fd8565b6040516103e29190613430565b60405180910390f35b3480156103f757600080fd5b50610400611fde565b005b34801561040e57600080fd5b506104296004803603810190610424919061347c565b612066565b6040516104369190613430565b60405180910390f35b34801561044b57600080fd5b5061045461207e565b6040516104619190613543565b60405180910390f35b34801561047657600080fd5b50610491600480360381019061048c9190613507565b6120a7565b005b34801561049f57600080fd5b506104ba60048036038101906104b5919061347c565b6121d6565b6040516104c79190613579565b60405180910390f35b3480156104dc57600080fd5b506104f760048036038101906104f2919061347c565b6121f6565b005b610513600480360381019061050e919061360b565b612502565b6040516105209190613430565b60405180910390f35b34801561053557600080fd5b5061053e612987565b60405161054b9190613543565b60405180910390f35b34801561056057600080fd5b5061057b60048036038101906105769190613686565b6129ad565b60405161058a939291906135d4565b60405180910390f35b34801561059f57600080fd5b506105ba60048036038101906105b5919061347c565b612a14565b6040516105c79190613543565b60405180910390f35b3480156105dc57600080fd5b506105e5612a47565b6040516105f29190613543565b60405180910390f35b34801561060757600080fd5b50610622600480360381019061061d919061347c565b612a6d565b005b34801561063057600080fd5b50610639612b36565b6040516106469190613430565b60405180910390f35b34801561065b57600080fd5b5061067660048036038101906106719190613507565b612b3c565b005b34801561068457600080fd5b5061069f600480360381019061069a919061347c565b612c33565b6040516106b39897969594939291906136c6565b60405180910390f35b60075481565b6106ca611e83565b1561070a576040517f08c379a0000000000000000000000000000000000000000000000000000000008152600401610701906137a1565b60405180910390fd5b60026001540361074f576040517f08c379a00000000000000000000000000000000000000000000000000000000081526004016107469061380d565b60405180910390fd5b60026001819055508060001515600f600083815260200190815260200160002060009054906101000a900460ff161515146107bf576040517f08c379a00000000000000000000000000000000000000000000000000000000081526004016107b690613879565b60405180910390fd5b816000600b600083815260200190815260200160002060040154118061081557506107e8612cbb565b6107f182612cc3565b11801561081457506000600b600083815260200190815260200160002060070154145b5b610854576040517f08c379a000000000000000000000000000000000000000000000000000000000815260040161084b906138e5565b60405180910390fd5b600061085e612d04565b90506000600b6000868152602001908152602001600020604051806101000160405290816000820160009054906101000a900473ffffffffffffffffffffffffffffffffffffffff1673ffffffffffffffffffffffffffffffffffffffff1673ffffffffffffffffffffffffffffffffffffffff168152602001600182015481526020016002820160009054906101000a900473ffffffffffffffffffffffffffffffffffffffff1673ffffffffffffffffffffffffffffffffffffffff1673ffffffffffffffffffffffffffffffffffffffff16815260200160038201548152602001600482015481526020016005820154815260200160068201548152602001600782015481525050905060008160800151116109b2576040517f08c379a00000000000000000000000000000000000000000000000000000000081526004016109a990613951565b60405180910390fd5b806080015134116109f8576040517f08c379a00000000000000000000000000000000000000000000000000000000081526004016109ef906139bd565b60405180910390fd5b8060800151600b600087815260200190815260200160002060070181905550816010600087815260200190815260200160002060006101000a81548173ffffffffffffffffffffffffffffffffffffffff021916908373ffffffffffffffffffffffffffffffffffffffff160217905550610a7285612d0c565b610a86816040015182608001518434612e5f565b6000610a90612cbb565b9050816000015173ffffffffffffffffffffffffffffffffffffffff166323b872dd308585602001516040518463ffffffff1660e01b8152600401610ad7939291906139dd565b600060405180830381600087803b158015610af157600080fd5b505af1158015610b05573d6000803e3d6000fd5b505050508160800151600b6000888152602001908152602001600020600701819055506001600f600088815260200190815260200160002060006101000a81548160ff0219169083151502179055506000600a6000846000015173ffffffffffffffffffffffffffffffffffffffff1673ffffffffffffffffffffffffffffffffffffffff16815260200190815260200160002060008460200151815260200190815260200160002081905550816000015173ffffffffffffffffffffffffffffffffffffffff168373ffffffffffffffffffffffffffffffffffffffff16877fbb7cf2addc576d161c349efe1848029343caab038bd75e9bed6956bcf1a512de8560200151866080015186604051610c2093929190613a14565b60405180910390a450505050506001808190555050565b610c3f612d04565b73ffffffffffffffffffffffffffffffffffffffff16610c5d61207e565b73ffffffffffffffffffffffffffffffffffffffff1614610cb3576040517f08c379a0000000000000000000000000000000000000000000000000000000008152600401610caa90613a97565b60405180910390fd5b600073ffffffffffffffffffffffffffffffffffffffff168173ffffffffffffffffffffffffffffffffffffffff1603610d22576040517f08c379a0000000000000000000000000000000000000000000000000000000008152600401610d1990613b03565b60405180910390fd5b80600460006101000a81548173ffffffffffffffffffffffffffffffffffffffff021916908373ffffffffffffffffffffffffffffffffffffffff16021790555050565b610d6e611e83565b15610dae576040517f08c379a0000000000000000000000000000000000000000000000000000000008152600401610da5906137a1565b60405180910390fd5b600260015403610df3576040517f08c379a0000000000000000000000000000000000000000000000000000000008152600401610dea9061380d565b60405180910390fd5b6002600181905550806000600b600083815260200190815260200160002060040154148015610e305750610e25612cbb565b610e2e82612cc3565b105b8015610e5257506000600b600083815260200190815260200160002060070154145b610e91576040517f08c379a0000000000000000000000000000000000000000000000000000000008152600401610e8890613b6f565b60405180910390fd5b8160001515600f600083815260200190815260200160002060009054906101000a900460ff16151514610ef9576040517f08c379a0000000000000000000000000000000000000000000000000000000008152600401610ef090613879565b60405180910390fd5b6000610f03612d04565b9050600073ffffffffffffffffffffffffffffffffffffffff16600c600086815260200190815260200160002060000160009054906101000a900473ffffffffffffffffffffffffffffffffffffffff1673ffffffffffffffffffffffffffffffffffffffff1603610faa576040517f08c379a0000000000000000000000000000000000000000000000000000000008152600401610fa190613bdb565b60405180910390fd5b6000610fb4612cbb565b9050600c600086815260200190815260200160002060010154600b600087815260200190815260200160002060070181905550816010600087815260200190815260200160002060006101000a81548173ffffffffffffffffffffffffffffffffffffffff021916908373ffffffffffffffffffffffffffffffffffffffff1602179055506110a7600b600087815260200190815260200160002060020160009054906101000a900473ffffffffffffffffffffffffffffffffffffffff16600c60008881526020019081526020016000206001015430600c60008a815260200190815260200160002060010154612e5f565b600b600086815260200190815260200160002060000160009054906101000a900473ffffffffffffffffffffffffffffffffffffffff1673ffffffffffffffffffffffffffffffffffffffff166323b872dd30600c600089815260200190815260200160002060000160009054906101000a900473ffffffffffffffffffffffffffffffffffffffff16600b60008a8152602001908152602001600020600101546040518463ffffffff1660e01b8152600401611166939291906139dd565b600060405180830381600087803b15801561118057600080fd5b505af1158015611194573d6000803e3d6000fd5b505050506001600f600087815260200190815260200160002060006101000a81548160ff0219169083151502179055506000600a6000600b600089815260200190815260200160002060000160009054906101000a900473ffffffffffffffffffffffffffffffffffffffff1673ffffffffffffffffffffffffffffffffffffffff1673ffffffffffffffffffffffffffffffffffffffff1681526020019081526020016000206000600b600089815260200190815260200160002060010154815260200190815260200160002081905550600b600086815260200190815260200160002060000160009054906101000a900473ffffffffffffffffffffffffffffffffffffffff1673ffffffffffffffffffffffffffffffffffffffff16600c600087815260200190815260200160002060000160009054906101000a900473ffffffffffffffffffffffffffffffffffffffff1673ffffffffffffffffffffffffffffffffffffffff16867f6136a6298c86cc8d4fd3717b16d543676c6fb93443967e03ef4daf52a6beabd5600b60008a815260200190815260200160002060010154600c60008b8152602001908152602001600020600101548660405161136093929190613a14565b60405180910390a4505050506001808190555050565b61137e611e83565b156113be576040517f08c379a00000000000000000000000000000000000000000000000000000000081526004016113b5906137a1565b60405180910390fd5b600260015403611403576040517f08c379a00000000000000000000000000000000000000000000000000000000081526004016113fa9061380d565b60405180910390fd5b6002600181905550806000600b60008381526020019081526020016000206004015411806114615750611434612cbb565b61143d82612cc3565b11801561146057506000600b600083815260200190815260200160002060070154145b5b6114a0576040517f08c379a0000000000000000000000000000000000000000000000000000000008152600401611497906138e5565b60405180910390fd5b8134600b6000838152602001908152602001600020600301548110156114fb576040517f08c379a00000000000000000000000000000000000000000000000000000000081526004016114f290613c6d565b60405180910390fd5b8334600c6000838152602001908152602001600020600101548111611555576040517f08c379a000000000000000000000000000000000000000000000000000000000815260040161154c90613cd9565b60405180910390fd5b600061155f612d04565b90506000600b6000898152602001908152602001600020604051806101000160405290816000820160009054906101000a900473ffffffffffffffffffffffffffffffffffffffff1673ffffffffffffffffffffffffffffffffffffffff1673ffffffffffffffffffffffffffffffffffffffff168152602001600182015481526020016002820160009054906101000a900473ffffffffffffffffffffffffffffffffffffffff1673ffffffffffffffffffffffffffffffffffffffff1673ffffffffffffffffffffffffffffffffffffffff16815260200160038201548152602001600482015481526020016005820154815260200160068201548152602001600782015481525050905060008160600151116116b3576040517f08c379a00000000000000000000000000000000000000000000000000000000081526004016116aa90613d45565b60405180910390fd5b60008160a00151116116fa576040517f08c379a00000000000000000000000000000000000000000000000000000000081526004016116f190613db1565b60405180910390fd5b428160a001511115611741576040517f08c379a000000000000000000000000000000000000000000000000000000000815260040161173890613db1565b60405180910390fd5b428160c001518260a001516117569190613e00565b1015611797576040517f08c379a000000000000000000000000000000000000000000000000000000000815260040161178e90613e80565b60405180910390fd5b6117a088612d0c565b60006117aa612cbb565b905060405180606001604052808473ffffffffffffffffffffffffffffffffffffffff16815260200134815260200182815250600c60008b815260200190815260200160002060008201518160000160006101000a81548173ffffffffffffffffffffffffffffffffffffffff021916908373ffffffffffffffffffffffffffffffffffffffff1602179055506020820151816001015560408201518160020155905050600d60008a8152602001908152602001600020600c60008b815260200190815260200160002090806001815401808255809150506001900390600052602060002090600302016000909190919091506000820160009054906101000a900473ffffffffffffffffffffffffffffffffffffffff168160000160006101000a81548173ffffffffffffffffffffffffffffffffffffffff021916908373ffffffffffffffffffffffffffffffffffffffff16021790555060018201548160010155600282015481600201555050600d60008a815260200190815260200160002080549050600e60008b8152602001908152602001600020819055508273ffffffffffffffffffffffffffffffffffffffff16897fac0ebbc97059918c087bafd7f3cfbb4d43b5b4b79ea7da777c248dae192ec53a3484604051611991929190613ea0565b60405180910390a350505050505050506001808190555050565b600560009054906101000a900473ffffffffffffffffffffffffffffffffffffffff1681565b6119d9611e83565b15611a19576040517f08c379a0000000000000000000000000000000000000000000000000000000008152600401611a10906137a1565b60405180910390fd5b600260015403611a5e576040517f08c379a0000000000000000000000000000000000000000000000000000000008152600401611a559061380d565b60405180910390fd5b60026001819055506000611a70612d04565b90508073ffffffffffffffffffffffffffffffffffffffff16600b600084815260200190815260200160002060020160009054906101000a900473ffffffffffffffffffffffffffffffffffffffff1673ffffffffffffffffffffffffffffffffffffffff161480611b145750611ae561207e565b73ffffffffffffffffffffffffffffffffffffffff168173ffffffffffffffffffffffffffffffffffffffff16145b611b53576040517f08c379a0000000000000000000000000000000000000000000000000000000008152600401611b4a90613f15565b60405180910390fd5b600073ffffffffffffffffffffffffffffffffffffffff16600c600084815260200190815260200160002060000160009054906101000a900473ffffffffffffffffffffffffffffffffffffffff1673ffffffffffffffffffffffffffffffffffffffff1614611bf8576040517f08c379a0000000000000000000000000000000000000000000000000000000008152600401611bef90613f81565b60405180910390fd5b6000600b60008481526020019081526020016000206007015414611c51576040517f08c379a0000000000000000000000000000000000000000000000000000000008152600401611c4890613fed565b60405180910390fd5b6000611c5b612cbb565b90506000600b6000858152602001908152602001600020600601819055506000600b600085815260200190815260200160002060040181905550600b600084815260200190815260200160002060000160009054906101000a900473ffffffffffffffffffffffffffffffffffffffff1673ffffffffffffffffffffffffffffffffffffffff166323b872dd30600b600087815260200190815260200160002060020160009054906101000a900473ffffffffffffffffffffffffffffffffffffffff16600b6000888152602001908152602001600020600101546040518463ffffffff1660e01b8152600401611d54939291906139dd565b600060405180830381600087803b158015611d6e57600080fd5b505af1158015611d82573d6000803e3d6000fd5b505050506000600a6000600b600087815260200190815260200160002060000160009054906101000a900473ffffffffffffffffffffffffffffffffffffffff1673ffffffffffffffffffffffffffffffffffffffff1673ffffffffffffffffffffffffffffffffffffffff1681526020019081526020016000206000600b6000878152602001908152602001600020600101548152602001908152602001600020819055508173ffffffffffffffffffffffffffffffffffffffff16837f0206c054ee34156e058e56bd76108fedd7483b93c2754a9c762bc674bbb6208e83604051611e6f9190613430565b60405180910390a350506001808190555050565b6000600260009054906101000a900460ff16905090565b600a602052816000526040600020602052806000526040600020600091509150505481565b611ec7612d04565b73ffffffffffffffffffffffffffffffffffffffff16611ee561207e565b73ffffffffffffffffffffffffffffffffffffffff1614611f3b576040517f08c379a0000000000000000000000000000000000000000000000000000000008152600401611f3290613a97565b60405180910390fd5b60008103611f7e576040517f08c379a0000000000000000000000000000000000000000000000000000000008152600401611f7590614059565b60405180910390fd5b8060078190555050565b600c6020528060005260406000206000915090508060000160009054906101000a900473ffffffffffffffffffffffffffffffffffffffff16908060010154908060020154905083565b60035481565b60095481565b611fe6612d04565b73ffffffffffffffffffffffffffffffffffffffff1661200461207e565b73ffffffffffffffffffffffffffffffffffffffff161461205a576040517f08c379a000000000000000000000000000000000000000000000000000000000815260040161205190613a97565b60405180910390fd5b6120646000613311565b565b600e6020528060005260406000206000915090505481565b60008060009054906101000a900473ffffffffffffffffffffffffffffffffffffffff16905090565b6120af612d04565b73ffffffffffffffffffffffffffffffffffffffff166120cd61207e565b73ffffffffffffffffffffffffffffffffffffffff1614612123576040517f08c379a000000000000000000000000000000000000000000000000000000000815260040161211a90613a97565b60405180910390fd5b600073ffffffffffffffffffffffffffffffffffffffff168173ffffffffffffffffffffffffffffffffffffffff1603612192576040517f08c379a0000000000000000000000000000000000000000000000000000000008152600401612189906140c5565b60405180910390fd5b80600560006101000a81548173ffffffffffffffffffffffffffffffffffffffff021916908373ffffffffffffffffffffffffffffffffffffffff16021790555050565b600f6020528060005260406000206000915054906101000a900460ff1681565b6121fe612d04565b73ffffffffffffffffffffffffffffffffffffffff1661221c61207e565b73ffffffffffffffffffffffffffffffffffffffff1614612272576040517f08c379a000000000000000000000000000000000000000000000000000000000815260040161226990613a97565b60405180910390fd5b600061227c612d04565b90506000612288612cbb565b90506000600b6000858152602001908152602001600020600601819055506000600b600085815260200190815260200160002060040181905550600b600084815260200190815260200160002060000160009054906101000a900473ffffffffffffffffffffffffffffffffffffffff1673ffffffffffffffffffffffffffffffffffffffff166323b872dd30600b600087815260200190815260200160002060020160009054906101000a900473ffffffffffffffffffffffffffffffffffffffff16600b6000888152602001908152602001600020600101546040518463ffffffff1660e01b8152600401612381939291906139dd565b600060405180830381600087803b15801561239b57600080fd5b505af11580156123af573d6000803e3d6000fd5b505050506123bc83612d0c565b6000600a6000600b600087815260200190815260200160002060000160009054906101000a900473ffffffffffffffffffffffffffffffffffffffff1673ffffffffffffffffffffffffffffffffffffffff1673ffffffffffffffffffffffffffffffffffffffff1681526020019081526020016000206000600b6000878152602001908152602001600020600101548152602001908152602001600020819055508173ffffffffffffffffffffffffffffffffffffffff16837fecd47e353af2ff3c8eb5c7140a4d48dfb4bf6ee5d89cdb3e96dfd5a24a294709600b600087815260200190815260200160002060000160009054906101000a900473ffffffffffffffffffffffffffffffffffffffff16600b600088815260200190815260200160002060010154856040516124f5939291906135d4565b60405180910390a3505050565b600061250c611e83565b1561254c576040517f08c379a0000000000000000000000000000000000000000000000000000000008152600401612543906137a1565b60405180910390fd5b6000612556612d04565b905060008511806125675750600084115b6125a6576040517f08c379a000000000000000000000000000000000000000000000000000000000815260040161259d90614131565b60405180910390fd5b8073ffffffffffffffffffffffffffffffffffffffff168773ffffffffffffffffffffffffffffffffffffffff16636352211e886040518263ffffffff1660e01b81526004016125f69190613430565b602060405180830381865afa158015612613573d6000803e3d6000fd5b505050506040513d601f19601f820116820180604052508101906126379190614166565b73ffffffffffffffffffffffffffffffffffffffff161461268d576040517f08c379a0000000000000000000000000000000000000000000000000000000008152600401612684906141df565b60405180910390fd5b603c8310156126d1576040517f08c379a00000000000000000000000000000000000000000000000000000000081526004016126c890614271565b60405180910390fd5b8673ffffffffffffffffffffffffffffffffffffffff166323b872dd8230896040518463ffffffff1660e01b815260040161270e939291906139dd565b600060405180830381600087803b15801561272857600080fd5b505af115801561273c573d6000803e3d6000fd5b50505050600061274a612cbb565b905060016003600082825461275f9190613e00565b925050819055506000600354905060006040518061010001604052808b73ffffffffffffffffffffffffffffffffffffffff1681526020018a81526020018573ffffffffffffffffffffffffffffffffffffffff1681526020018981526020018881526020018481526020018781526020016000815250905080600b600084815260200190815260200160002060008201518160000160006101000a81548173ffffffffffffffffffffffffffffffffffffffff021916908373ffffffffffffffffffffffffffffffffffffffff1602179055506020820151816001015560408201518160020160006101000a81548173ffffffffffffffffffffffffffffffffffffffff021916908373ffffffffffffffffffffffffffffffffffffffff160217905550606082015181600301556080820151816004015560a0820151816005015560c0820151816006015560e0820151816007015590505081600a60008c73ffffffffffffffffffffffffffffffffffffffff1673ffffffffffffffffffffffffffffffffffffffff16815260200190815260200160002060008b8152602001908152602001600020819055508973ffffffffffffffffffffffffffffffffffffffff168473ffffffffffffffffffffffffffffffffffffffff167fd1f22b5587ec644f3097f07db2c1334576a961d7831207837d1b32b30937f560848c8760405161296f93929190613a14565b60405180910390a38194505050505095945050505050565b600460009054906101000a900473ffffffffffffffffffffffffffffffffffffffff1681565b600d60205281600052604060002081815481106129c957600080fd5b9060005260206000209060030201600091509150508060000160009054906101000a900473ffffffffffffffffffffffffffffffffffffffff16908060010154908060020154905083565b60106020528060005260406000206000915054906101000a900473ffffffffffffffffffffffffffffffffffffffff1681565b600660009054906101000a900473ffffffffffffffffffffffffffffffffffffffff1681565b612a75612d04565b73ffffffffffffffffffffffffffffffffffffffff16612a9361207e565b73ffffffffffffffffffffffffffffffffffffffff1614612ae9576040517f08c379a0000000000000000000000000000000000000000000000000000000008152600401612ae090613a97565b60405180910390fd5b60008103612b2c576040517f08c379a0000000000000000000000000000000000000000000000000000000008152600401612b23906142dd565b60405180910390fd5b8060088190555050565b60085481565b612b44612d04565b73ffffffffffffffffffffffffffffffffffffffff16612b6261207e565b73ffffffffffffffffffffffffffffffffffffffff1614612bb8576040517f08c379a0000000000000000000000000000000000000000000000000000000008152600401612baf90613a97565b60405180910390fd5b600073ffffffffffffffffffffffffffffffffffffffff168173ffffffffffffffffffffffffffffffffffffffff1603612c27576040517f08c379a0000000000000000000000000000000000000000000000000000000008152600401612c1e9061436f565b60405180910390fd5b612c3081613311565b50565b600b6020528060005260406000206000915090508060000160009054906101000a900473ffffffffffffffffffffffffffffffffffffffff16908060010154908060020160009054906101000a900473ffffffffffffffffffffffffffffffffffffffff16908060030154908060040154908060050154908060060154908060070154905088565b600042905090565b6000600b600083815260200190815260200160002060060154600b600084815260200190815260200160002060050154612cfd9190613e00565b9050919050565b600033905090565b6000600c60008381526020019081526020016000206040518060600160405290816000820160009054906101000a900473ffffffffffffffffffffffffffffffffffffffff1673ffffffffffffffffffffffffffffffffffffffff1673ffffffffffffffffffffffffffffffffffffffff168152602001600182015481526020016002820154815250509050600081602001511115612e5b576000816000015173ffffffffffffffffffffffffffffffffffffffff168260200151604051612dd3906143c0565b60006040518083038185875af1925050503d8060008114612e10576040519150601f19603f3d011682016040523d82523d6000602084013e612e15565b606091505b5050905080612e59576040517f08c379a0000000000000000000000000000000000000000000000000000000008152600401612e5090614421565b60405180910390fd5b505b5050565b6000612e896064612e7b600754876133d590919063ffffffff16565b6133eb90919063ffffffff16565b90506000612eb56064612ea7600854886133d590919063ffffffff16565b6133eb90919063ffffffff16565b90506000612ee16064612ed3600954896133d590919063ffffffff16565b6133eb90919063ffffffff16565b90506000600460009054906101000a900473ffffffffffffffffffffffffffffffffffffffff1673ffffffffffffffffffffffffffffffffffffffff1684604051612f2b906143c0565b60006040518083038185875af1925050503d8060008114612f68576040519150601f19603f3d011682016040523d82523d6000602084013e612f6d565b606091505b5050905080612fb1576040517f08c379a0000000000000000000000000000000000000000000000000000000008152600401612fa89061448d565b60405180910390fd5b6000600560009054906101000a900473ffffffffffffffffffffffffffffffffffffffff1673ffffffffffffffffffffffffffffffffffffffff1684604051612ff9906143c0565b60006040518083038185875af1925050503d8060008114613036576040519150601f19603f3d011682016040523d82523d6000602084013e61303b565b606091505b505090508061307f576040517f08c379a00000000000000000000000000000000000000000000000000000000081526004016130769061451f565b60405180910390fd5b6000600660009054906101000a900473ffffffffffffffffffffffffffffffffffffffff1673ffffffffffffffffffffffffffffffffffffffff16846040516130c7906143c0565b60006040518083038185875af1925050503d8060008114613104576040519150601f19603f3d011682016040523d82523d6000602084013e613109565b606091505b505090508061314d576040517f08c379a00000000000000000000000000000000000000000000000000000000081526004016131449061458b565b60405180910390fd5b6000613186856131788861316a8b8f61340190919063ffffffff16565b61340190919063ffffffff16565b61340190919063ffffffff16565b905060008b73ffffffffffffffffffffffffffffffffffffffff16826040516131ae906143c0565b60006040518083038185875af1925050503d80600081146131eb576040519150601f19603f3d011682016040523d82523d6000602084013e6131f0565b606091505b5050905080613234576040517f08c379a000000000000000000000000000000000000000000000000000000000815260040161322b906145f7565b60405180910390fd5b60006132498c8b61340190919063ffffffff16565b905060008111156133025760008b73ffffffffffffffffffffffffffffffffffffffff168260405161327a906143c0565b60006040518083038185875af1925050503d80600081146132b7576040519150601f19603f3d011682016040523d82523d6000602084013e6132bc565b606091505b5050905080613300576040517f08c379a00000000000000000000000000000000000000000000000000000000081526004016132f790614663565b60405180910390fd5b505b50505050505050505050505050565b60008060009054906101000a900473ffffffffffffffffffffffffffffffffffffffff169050816000806101000a81548173ffffffffffffffffffffffffffffffffffffffff021916908373ffffffffffffffffffffffffffffffffffffffff1602179055508173ffffffffffffffffffffffffffffffffffffffff168173ffffffffffffffffffffffffffffffffffffffff167f8be0079c531659141344cd1fd0a4f28419497f9722a3daafe3b4186f6b6457e060405160405180910390a35050565b600081836133e39190614683565b905092915050565b600081836133f991906146f4565b905092915050565b6000818361340f9190614725565b905092915050565b6000819050919050565b61342a81613417565b82525050565b60006020820190506134456000830184613421565b92915050565b600080fd5b61345981613417565b811461346457600080fd5b50565b60008135905061347681613450565b92915050565b6000602082840312156134925761349161344b565b5b60006134a084828501613467565b91505092915050565b600073ffffffffffffffffffffffffffffffffffffffff82169050919050565b60006134d4826134a9565b9050919050565b6134e4816134c9565b81146134ef57600080fd5b50565b600081359050613501816134db565b92915050565b60006020828403121561351d5761351c61344b565b5b600061352b848285016134f2565b91505092915050565b61353d816134c9565b82525050565b60006020820190506135586000830184613534565b92915050565b60008115159050919050565b6135738161355e565b82525050565b600060208201905061358e600083018461356a565b92915050565b600080604083850312156135ab576135aa61344b565b5b60006135b9858286016134f2565b92505060206135ca85828601613467565b9150509250929050565b60006060820190506135e96000830186613534565b6135f66020830185613421565b6136036040830184613421565b949350505050565b600080600080600060a086880312156136275761362661344b565b5b6000613635888289016134f2565b955050602061364688828901613467565b945050604061365788828901613467565b935050606061366888828901613467565b925050608061367988828901613467565b9150509295509295909350565b6000806040838503121561369d5761369c61344b565b5b60006136ab85828601613467565b92505060206136bc85828601613467565b9150509250929050565b6000610100820190506136dc600083018b613534565b6136e9602083018a613421565b6136f66040830189613534565b6137036060830188613421565b6137106080830187613421565b61371d60a0830186613421565b61372a60c0830185613421565b61373760e0830184613421565b9998505050505050505050565b600082825260208201905092915050565b7f5061757361626c653a2070617573656400000000000000000000000000000000600082015250565b600061378b601083613744565b915061379682613755565b602082019050919050565b600060208201905081810360008301526137ba8161377e565b9050919050565b7f5265656e7472616e637947756172643a207265656e7472616e742063616c6c00600082015250565b60006137f7601f83613744565b9150613802826137c1565b602082019050919050565b60006020820190508181036000830152613826816137ea565b9050919050565b7f436c61696d656420616c72656164790000000000000000000000000000000000600082015250565b6000613863600f83613744565b915061386e8261382d565b602082019050919050565b6000602082019050818103600083015261389281613856565b9050919050565b7f41756374696f6e20636c6f736564000000000000000000000000000000000000600082015250565b60006138cf600e83613744565b91506138da82613899565b602082019050919050565b600060208201905081810360008301526138fe816138c2565b9050919050565b7f4469726563742062757920756e617661696c61626c6500000000000000000000600082015250565b600061393b601683613744565b915061394682613905565b602082019050919050565b6000602082019050818103600083015261396a8161392e565b9050919050565b7f4e6f7420656e6f7567682062616c616e63650000000000000000000000000000600082015250565b60006139a7601283613744565b91506139b282613971565b602082019050919050565b600060208201905081810360008301526139d68161399a565b9050919050565b60006060820190506139f26000830186613534565b6139ff6020830185613534565b613a0c6040830184613421565b949350505050565b6000606082019050613a296000830186613421565b613a366020830185613421565b613a436040830184613421565b949350505050565b7f4f776e61626c653a2063616c6c6572206973206e6f7420746865206f776e6572600082015250565b6000613a81602083613744565b9150613a8c82613a4b565b602082019050919050565b60006020820190508181036000830152613ab081613a74565b9050919050565b7f4d61726b657420416464726573732073686f756c64206e6f7420626520300000600082015250565b6000613aed601e83613744565b9150613af882613ab7565b602082019050919050565b60006020820190508181036000830152613b1c81613ae0565b9050919050565b7f41756374696f6e206e6f7420636c6f7365640000000000000000000000000000600082015250565b6000613b59601283613744565b9150613b6482613b23565b602082019050919050565b60006020820190508181036000830152613b8881613b4c565b9050919050565b7f4e6f206269647300000000000000000000000000000000000000000000000000600082015250565b6000613bc5600783613744565b9150613bd082613b8f565b602082019050919050565b60006020820190508181036000830152613bf481613bb8565b9050919050565b7f496e73756666696369656e74206f6666657220616d6f756e7420666f7220746860008201527f69732061756374696f6e00000000000000000000000000000000000000000000602082015250565b6000613c57602a83613744565b9150613c6282613bfb565b604082019050919050565b60006020820190508181036000830152613c8681613c4a565b9050919050565b7f416d6f756e74206d757374206265206869676865720000000000000000000000600082015250565b6000613cc3601583613744565b9150613cce82613c8d565b602082019050919050565b60006020820190508181036000830152613cf281613cb6565b9050919050565b7f41756374696f6e20756e617661696c61626c6500000000000000000000000000600082015250565b6000613d2f601383613744565b9150613d3a82613cf9565b602082019050919050565b60006020820190508181036000830152613d5e81613d22565b9050919050565b7f41756374696f6e206973206e6f74207374617274656420796574000000000000600082015250565b6000613d9b601a83613744565b9150613da682613d65565b602082019050919050565b60006020820190508181036000830152613dca81613d8e565b9050919050565b7f4e487b7100000000000000000000000000000000000000000000000000000000600052601160045260246000fd5b6000613e0b82613417565b9150613e1683613417565b9250828201905080821115613e2e57613e2d613dd1565b5b92915050565b7f41756374696f6e20697320616c72656164792066696e69736865640000000000600082015250565b6000613e6a601b83613744565b9150613e7582613e34565b602082019050919050565b60006020820190508181036000830152613e9981613e5d565b9050919050565b6000604082019050613eb56000830185613421565b613ec26020830184613421565b9392505050565b7f55736572206973206e6f742074686520746f6b656e206f776e65720000000000600082015250565b6000613eff601b83613744565b9150613f0a82613ec9565b602082019050919050565b60006020820190508181036000830152613f2e81613ef2565b9050919050565b7f4861732062696473000000000000000000000000000000000000000000000000600082015250565b6000613f6b600883613744565b9150613f7682613f35565b602082019050919050565b60006020820190508181036000830152613f9a81613f5e565b9050919050565b7f416c726561647920626f75676874000000000000000000000000000000000000600082015250565b6000613fd7600e83613744565b9150613fe282613fa1565b602082019050919050565b6000602082019050818103600083015261400681613fca565b9050919050565b7f4d61726b6574204665652073686f756c64206e6f742062652030000000000000600082015250565b6000614043601a83613744565b915061404e8261400d565b602082019050919050565b6000602082019050818103600083015261407281614036565b9050919050565b7f4368617269747920416464726573732073686f756c64206e6f74206265203000600082015250565b60006140af601f83613744565b91506140ba82614079565b602082019050919050565b600060208201905081810360008301526140de816140a2565b9050919050565b7f50726963652073686f756c6420626520626967676572207468616e2030000000600082015250565b600061411b601d83613744565b9150614126826140e5565b602082019050919050565b6000602082019050818103600083015261414a8161410e565b9050919050565b600081519050614160816134db565b92915050565b60006020828403121561417c5761417b61344b565b5b600061418a84828501614151565b91505092915050565b7f4e6f7420746865206f776e6572206f662074686520746f6b656e000000000000600082015250565b60006141c9601a83613744565b91506141d482614193565b602082019050919050565b600060208201905081810360008301526141f8816141bc565b9050919050565b7f41756374696f6e206475726174696f6e2073686f756c64206265206d6f72652060008201527f7468616e2031206d696e75746500000000000000000000000000000000000000602082015250565b600061425b602d83613744565b9150614266826141ff565b604082019050919050565b6000602082019050818103600083015261428a8161424e565b9050919050565b7f43686172697479204665652073686f756c64206e6f7420626520300000000000600082015250565b60006142c7601b83613744565b91506142d282614291565b602082019050919050565b600060208201905081810360008301526142f6816142ba565b9050919050565b7f4f776e61626c653a206e6577206f776e657220697320746865207a65726f206160008201527f6464726573730000000000000000000000000000000000000000000000000000602082015250565b6000614359602683613744565b9150614364826142fd565b604082019050919050565b600060208201905081810360008301526143888161434c565b9050919050565b600081905092915050565b50565b60006143aa60008361438f565b91506143b58261439a565b600082019050919050565b60006143cb8261439d565b9150819050919050565b7f4661696c656420746f2073656e642062616c616e636500000000000000000000600082015250565b600061440b601683613744565b9150614416826143d5565b602082019050919050565b6000602082019050818103600083015261443a816143fe565b9050919050565b7f4661696c656420746f2073656e642062616c616e636520746f206d61726b6574600082015250565b6000614477602083613744565b915061448282614441565b602082019050919050565b600060208201905081810360008301526144a68161446a565b9050919050565b7f4661696c656420746f2073656e642062616c616e636520746f2063686172697460008201527f7900000000000000000000000000000000000000000000000000000000000000602082015250565b6000614509602183613744565b9150614514826144ad565b604082019050919050565b60006020820190508181036000830152614538816144fc565b9050919050565b7f4661696c656420746f2073656e642062616c616e636520746f20646576000000600082015250565b6000614575601d83613744565b91506145808261453f565b602082019050919050565b600060208201905081810360008301526145a481614568565b9050919050565b7f4661696c656420746f2073656e642062616c616e636520746f2073656c6c6572600082015250565b60006145e1602083613744565b91506145ec826145ab565b602082019050919050565b60006020820190508181036000830152614610816145d4565b9050919050565b7f4661696c656420746f2073656e642062616c616e636520746f20627579657200600082015250565b600061464d601f83613744565b915061465882614617565b602082019050919050565b6000602082019050818103600083015261467c81614640565b9050919050565b600061468e82613417565b915061469983613417565b92508282026146a781613417565b915082820484148315176146be576146bd613dd1565b5b5092915050565b7f4e487b7100000000000000000000000000000000000000000000000000000000600052601260045260246000fd5b60006146ff82613417565b915061470a83613417565b92508261471a576147196146c5565b5b828204905092915050565b600061473082613417565b915061473b83613417565b925082820390508181111561475357614752613dd1565b5b9291505056fea264697066735822122067c4120c3ee8edb52c99df015eb5678aef074f6459ad2da45e57012a3a9e725364736f6c63430008110033",
  "linkReferences": {},
  "deployedLinkReferences": {}
}